{
  "_format": "hh-sol-artifact-1",
  "contractName": "NFT",
  "sourceName": "contracts/NFT.sol",
  "abi": [
    {
      "inputs": [],
      "stateMutability": "nonpayable",
      "type": "constructor"
    },
    {
      "anonymous": false,
      "inputs": [
        {
          "indexed": true,
          "internalType": "address",
          "name": "account",
          "type": "address"
        },
        {
          "indexed": true,
          "internalType": "address",
          "name": "operator",
          "type": "address"
        },
        {
          "indexed": false,
          "internalType": "bool",
          "name": "approved",
          "type": "bool"
        }
      ],
      "name": "ApprovalForAll",
      "type": "event"
    },
    {
      "anonymous": false,
      "inputs": [
        {
          "indexed": true,
          "internalType": "address",
          "name": "previousOwner",
          "type": "address"
        },
        {
          "indexed": true,
          "internalType": "address",
          "name": "newOwner",
          "type": "address"
        }
      ],
      "name": "OwnershipTransferred",
      "type": "event"
    },
    {
      "anonymous": false,
      "inputs": [
        {
          "indexed": true,
          "internalType": "address",
          "name": "operator",
          "type": "address"
        },
        {
          "indexed": true,
          "internalType": "address",
          "name": "from",
          "type": "address"
        },
        {
          "indexed": true,
          "internalType": "address",
          "name": "to",
          "type": "address"
        },
        {
          "indexed": false,
          "internalType": "uint256[]",
          "name": "ids",
          "type": "uint256[]"
        },
        {
          "indexed": false,
          "internalType": "uint256[]",
          "name": "values",
          "type": "uint256[]"
        }
      ],
      "name": "TransferBatch",
      "type": "event"
    },
    {
      "anonymous": false,
      "inputs": [
        {
          "indexed": true,
          "internalType": "address",
          "name": "operator",
          "type": "address"
        },
        {
          "indexed": true,
          "internalType": "address",
          "name": "from",
          "type": "address"
        },
        {
          "indexed": true,
          "internalType": "address",
          "name": "to",
          "type": "address"
        },
        {
          "indexed": false,
          "internalType": "uint256",
          "name": "id",
          "type": "uint256"
        },
        {
          "indexed": false,
          "internalType": "uint256",
          "name": "value",
          "type": "uint256"
        }
      ],
      "name": "TransferSingle",
      "type": "event"
    },
    {
      "anonymous": false,
      "inputs": [
        {
          "indexed": false,
          "internalType": "string",
          "name": "value",
          "type": "string"
        },
        {
          "indexed": true,
          "internalType": "uint256",
          "name": "id",
          "type": "uint256"
        }
      ],
      "name": "URI",
      "type": "event"
    },
    {
      "inputs": [
        {
          "internalType": "address",
          "name": "account",
          "type": "address"
        },
        {
          "internalType": "uint256",
          "name": "id",
          "type": "uint256"
        }
      ],
      "name": "balanceOf",
      "outputs": [
        {
          "internalType": "uint256",
          "name": "",
          "type": "uint256"
        }
      ],
      "stateMutability": "view",
      "type": "function"
    },
    {
      "inputs": [
        {
          "internalType": "address[]",
          "name": "accounts",
          "type": "address[]"
        },
        {
          "internalType": "uint256[]",
          "name": "ids",
          "type": "uint256[]"
        }
      ],
      "name": "balanceOfBatch",
      "outputs": [
        {
          "internalType": "uint256[]",
          "name": "",
          "type": "uint256[]"
        }
      ],
      "stateMutability": "view",
      "type": "function"
    },
    {
      "inputs": [
        {
          "internalType": "address",
          "name": "account",
          "type": "address"
        },
        {
          "internalType": "address",
          "name": "operator",
          "type": "address"
        }
      ],
      "name": "isApprovedForAll",
      "outputs": [
        {
          "internalType": "bool",
          "name": "",
          "type": "bool"
        }
      ],
      "stateMutability": "view",
      "type": "function"
    },
    {
      "inputs": [
        {
          "internalType": "string",
          "name": "_uri",
          "type": "string"
        },
        {
          "internalType": "uint256",
          "name": "amount",
          "type": "uint256"
        }
      ],
      "name": "mint",
      "outputs": [
        {
          "internalType": "bool",
          "name": "",
          "type": "bool"
        }
      ],
      "stateMutability": "nonpayable",
      "type": "function"
    },
    {
      "inputs": [],
      "name": "name",
      "outputs": [
        {
          "internalType": "string",
          "name": "",
          "type": "string"
        }
      ],
      "stateMutability": "view",
      "type": "function"
    },
    {
      "inputs": [],
      "name": "owner",
      "outputs": [
        {
          "internalType": "address",
          "name": "",
          "type": "address"
        }
      ],
      "stateMutability": "view",
      "type": "function"
    },
    {
      "inputs": [],
      "name": "renounceOwnership",
      "outputs": [],
      "stateMutability": "nonpayable",
      "type": "function"
    },
    {
      "inputs": [
        {
          "internalType": "uint256",
          "name": "_tokenId",
          "type": "uint256"
        },
        {
          "internalType": "uint256",
          "name": "_salePrice",
          "type": "uint256"
        }
      ],
      "name": "royaltyInfo",
      "outputs": [
        {
          "internalType": "address",
          "name": "",
          "type": "address"
        },
        {
          "internalType": "uint256",
          "name": "",
          "type": "uint256"
        }
      ],
      "stateMutability": "view",
      "type": "function"
    },
    {
      "inputs": [
        {
          "internalType": "address",
          "name": "from",
          "type": "address"
        },
        {
          "internalType": "address",
          "name": "to",
          "type": "address"
        },
        {
          "internalType": "uint256[]",
          "name": "ids",
          "type": "uint256[]"
        },
        {
          "internalType": "uint256[]",
          "name": "amounts",
          "type": "uint256[]"
        },
        {
          "internalType": "bytes",
          "name": "data",
          "type": "bytes"
        }
      ],
      "name": "safeBatchTransferFrom",
      "outputs": [],
      "stateMutability": "nonpayable",
      "type": "function"
    },
    {
      "inputs": [
        {
          "internalType": "address",
          "name": "from",
          "type": "address"
        },
        {
          "internalType": "address",
          "name": "to",
          "type": "address"
        },
        {
          "internalType": "uint256",
          "name": "id",
          "type": "uint256"
        },
        {
          "internalType": "uint256",
          "name": "amount",
          "type": "uint256"
        },
        {
          "internalType": "bytes",
          "name": "data",
          "type": "bytes"
        }
      ],
      "name": "safeTransferFrom",
      "outputs": [],
      "stateMutability": "nonpayable",
      "type": "function"
    },
    {
      "inputs": [
        {
          "internalType": "address",
          "name": "operator",
          "type": "address"
        },
        {
          "internalType": "bool",
          "name": "approved",
          "type": "bool"
        }
      ],
      "name": "setApprovalForAll",
      "outputs": [],
      "stateMutability": "nonpayable",
      "type": "function"
    },
    {
      "inputs": [
        {
          "internalType": "bytes4",
          "name": "interfaceId",
          "type": "bytes4"
        }
      ],
      "name": "supportsInterface",
      "outputs": [
        {
          "internalType": "bool",
          "name": "",
          "type": "bool"
        }
      ],
      "stateMutability": "view",
      "type": "function"
    },
    {
      "inputs": [],
      "name": "symbol",
      "outputs": [
        {
          "internalType": "string",
          "name": "",
          "type": "string"
        }
      ],
      "stateMutability": "view",
      "type": "function"
    },
    {
      "inputs": [],
      "name": "tokenCount",
      "outputs": [
        {
          "internalType": "uint256",
          "name": "",
          "type": "uint256"
        }
      ],
      "stateMutability": "view",
      "type": "function"
    },
    {
      "inputs": [
        {
          "internalType": "address",
          "name": "newOwner",
          "type": "address"
        }
      ],
      "name": "transferOwnership",
      "outputs": [],
      "stateMutability": "nonpayable",
      "type": "function"
    },
    {
      "inputs": [
        {
          "internalType": "uint256",
          "name": "tokenId",
          "type": "uint256"
        }
      ],
      "name": "uri",
      "outputs": [
        {
          "internalType": "string",
          "name": "",
          "type": "string"
        }
      ],
      "stateMutability": "view",
      "type": "function"
    }
  ],
  "bytecode": "0x60806040526040518060400160405280600c81526020017f54616b656e204d61726b65740000000000000000000000000000000000000000815250600690816200004a919062000478565b506040518060400160405280600381526020017f54544e00000000000000000000000000000000000000000000000000000000008152506007908162000091919062000478565b506103e8600860006101000a8154816bffffffffffffffffffffffff02191690836bffffffffffffffffffffffff160217905550348015620000d257600080fd5b5060405180602001604052806000815250620000f4816200011b60201b60201c565b5062000115620001096200013060201b60201c565b6200013860201b60201c565b6200055f565b80600290816200012c919062000478565b5050565b600033905090565b6000600360009054906101000a900473ffffffffffffffffffffffffffffffffffffffff16905081600360006101000a81548173ffffffffffffffffffffffffffffffffffffffff021916908373ffffffffffffffffffffffffffffffffffffffff1602179055508173ffffffffffffffffffffffffffffffffffffffff168173ffffffffffffffffffffffffffffffffffffffff167f8be0079c531659141344cd1fd0a4f28419497f9722a3daafe3b4186f6b6457e060405160405180910390a35050565b600081519050919050565b7f4e487b7100000000000000000000000000000000000000000000000000000000600052604160045260246000fd5b7f4e487b7100000000000000000000000000000000000000000000000000000000600052602260045260246000fd5b600060028204905060018216806200028057607f821691505b60208210810362000296576200029562000238565b5b50919050565b60008190508160005260206000209050919050565b60006020601f8301049050919050565b600082821b905092915050565b600060088302620003007fffffffffffffffffffffffffffffffffffffffffffffffffffffffffffffffff82620002c1565b6200030c8683620002c1565b95508019841693508086168417925050509392505050565b6000819050919050565b6000819050919050565b600062000359620003536200034d8462000324565b6200032e565b62000324565b9050919050565b6000819050919050565b620003758362000338565b6200038d620003848262000360565b848454620002ce565b825550505050565b600090565b620003a462000395565b620003b18184846200036a565b505050565b5b81811015620003d957620003cd6000826200039a565b600181019050620003b7565b5050565b601f8211156200042857620003f2816200029c565b620003fd84620002b1565b810160208510156200040d578190505b620004256200041c85620002b1565b830182620003b6565b50505b505050565b600082821c905092915050565b60006200044d600019846008026200042d565b1980831691505092915050565b60006200046883836200043a565b9150826002028217905092915050565b6200048382620001fe565b67ffffffffffffffff8111156200049f576200049e62000209565b5b620004ab825462000267565b620004b8828285620003dd565b600060209050601f831160018114620004f05760008415620004db578287015190505b620004e785826200045a565b86555062000557565b601f19841662000500866200029c565b60005b828110156200052a5784890151825560018201915060208501945060208101905062000503565b868310156200054a578489015162000546601f8916826200043a565b8355505b6001600288020188555050505b505050505050565b6137a2806200056f6000396000f3fe608060405234801561001057600080fd5b50600436106100ff5760003560e01c8063715018a611610097578063a22cb46511610066578063a22cb465146102c3578063e985e9c5146102df578063f242432a1461030f578063f2fde38b1461032b576100ff565b8063715018a61461025f5780638da5cb5b1461026957806395d89b41146102875780639f181b5e146102a5576100ff565b80630e89341c116100d35780630e89341c146101b25780632a55205a146101e25780632eb2c2d6146102135780634e1273f41461022f576100ff565b8062fdd58e1461010457806301ffc9a714610134578063056b01ce1461016457806306fdde0314610194575b600080fd5b61011e60048036038101906101199190611eff565b610347565b60405161012b9190611f4e565b60405180910390f35b61014e60048036038101906101499190611fc1565b61040f565b60405161015b9190612009565b60405180910390f35b61017e6004803603810190610179919061216a565b610451565b60405161018b9190612009565b60405180910390f35b61019c6104c5565b6040516101a99190612245565b60405180910390f35b6101cc60048036038101906101c79190612267565b610553565b6040516101d99190612245565b60405180910390f35b6101fc60048036038101906101f79190612294565b6105f8565b60405161020a9291906122e3565b60405180910390f35b61022d60048036038101906102289190612475565b6107e2565b005b61024960048036038101906102449190612607565b610883565b604051610256919061273d565b60405180910390f35b61026761099c565b005b6102716109b0565b60405161027e919061275f565b60405180910390f35b61028f6109da565b60405161029c9190612245565b60405180910390f35b6102ad610a68565b6040516102ba9190611f4e565b60405180910390f35b6102dd60048036038101906102d891906127a6565b610a6e565b005b6102f960048036038101906102f491906127e6565b610a84565b6040516103069190612009565b60405180910390f35b61032960048036038101906103249190612826565b610b18565b005b610345600480360381019061034091906128bd565b610bb9565b005b60008073ffffffffffffffffffffffffffffffffffffffff168373ffffffffffffffffffffffffffffffffffffffff16036103b7576040517f08c379a00000000000000000000000000000000000000000000000000000000081526004016103ae9061295c565b60405180910390fd5b60008083815260200190815260200160002060008473ffffffffffffffffffffffffffffffffffffffff1673ffffffffffffffffffffffffffffffffffffffff16815260200190815260200160002054905092915050565b6000632a55205a60e01b827bffffffffffffffffffffffffffffffffffffffffffffffffffffffff1916148061044a575061044982610c3c565b5b9050919050565b600060096000815480929190610466906129ab565b9190505550610488336009548460405180602001604052806000815250610cb6565b61049460095484610e66565b6104bb60095433600860009054906101000a90046bffffffffffffffffffffffff16610e8b565b6001905092915050565b600680546104d290612a22565b80601f01602080910402602001604051908101604052809291908181526020018280546104fe90612a22565b801561054b5780601f106105205761010080835404028352916020019161054b565b820191906000526020600020905b81548152906001019060200180831161052e57829003601f168201915b505050505081565b6060600a6000838152602001908152602001600020805461057390612a22565b80601f016020809104026020016040519081016040528092919081815260200182805461059f90612a22565b80156105ec5780601f106105c1576101008083540402835291602001916105ec565b820191906000526020600020905b8154815290600101906020018083116105cf57829003601f168201915b50505050509050919050565b6000806000600560008681526020019081526020016000206040518060400160405290816000820160009054906101000a900473ffffffffffffffffffffffffffffffffffffffff1673ffffffffffffffffffffffffffffffffffffffff1673ffffffffffffffffffffffffffffffffffffffff1681526020016000820160149054906101000a90046bffffffffffffffffffffffff166bffffffffffffffffffffffff166bffffffffffffffffffffffff16815250509050600073ffffffffffffffffffffffffffffffffffffffff16816000015173ffffffffffffffffffffffffffffffffffffffff160361078d5760046040518060400160405290816000820160009054906101000a900473ffffffffffffffffffffffffffffffffffffffff1673ffffffffffffffffffffffffffffffffffffffff1673ffffffffffffffffffffffffffffffffffffffff1681526020016000820160149054906101000a90046bffffffffffffffffffffffff166bffffffffffffffffffffffff166bffffffffffffffffffffffff168152505090505b6000610797611032565b6bffffffffffffffffffffffff1682602001516bffffffffffffffffffffffff16866107c39190612a53565b6107cd9190612ac4565b90508160000151819350935050509250929050565b6107ea61103c565b73ffffffffffffffffffffffffffffffffffffffff168573ffffffffffffffffffffffffffffffffffffffff161480610830575061082f8561082a61103c565b610a84565b5b61086f576040517f08c379a000000000000000000000000000000000000000000000000000000000815260040161086690612b67565b60405180910390fd5b61087c8585858585611044565b5050505050565b606081518351146108c9576040517f08c379a00000000000000000000000000000000000000000000000000000000081526004016108c090612bf9565b60405180910390fd5b6000835167ffffffffffffffff8111156108e6576108e561203f565b5b6040519080825280602002602001820160405280156109145781602001602082028036833780820191505090505b50905060005b84518110156109915761096185828151811061093957610938612c19565b5b602002602001015185838151811061095457610953612c19565b5b6020026020010151610347565b82828151811061097457610973612c19565b5b6020026020010181815250508061098a906129ab565b905061091a565b508091505092915050565b6109a4611365565b6109ae60006113e3565b565b6000600360009054906101000a900473ffffffffffffffffffffffffffffffffffffffff16905090565b600780546109e790612a22565b80601f0160208091040260200160405190810160405280929190818152602001828054610a1390612a22565b8015610a605780601f10610a3557610100808354040283529160200191610a60565b820191906000526020600020905b815481529060010190602001808311610a4357829003601f168201915b505050505081565b60095481565b610a80610a7961103c565b83836114a9565b5050565b6000600160008473ffffffffffffffffffffffffffffffffffffffff1673ffffffffffffffffffffffffffffffffffffffff16815260200190815260200160002060008373ffffffffffffffffffffffffffffffffffffffff1673ffffffffffffffffffffffffffffffffffffffff16815260200190815260200160002060009054906101000a900460ff16905092915050565b610b2061103c565b73ffffffffffffffffffffffffffffffffffffffff168573ffffffffffffffffffffffffffffffffffffffff161480610b665750610b6585610b6061103c565b610a84565b5b610ba5576040517f08c379a0000000000000000000000000000000000000000000000000000000008152600401610b9c90612b67565b60405180910390fd5b610bb28585858585611615565b5050505050565b610bc1611365565b600073ffffffffffffffffffffffffffffffffffffffff168173ffffffffffffffffffffffffffffffffffffffff1603610c30576040517f08c379a0000000000000000000000000000000000000000000000000000000008152600401610c2790612cba565b60405180910390fd5b610c39816113e3565b50565b60007f2a55205a000000000000000000000000000000000000000000000000000000007bffffffffffffffffffffffffffffffffffffffffffffffffffffffff1916827bffffffffffffffffffffffffffffffffffffffffffffffffffffffff19161480610caf5750610cae826118b0565b5b9050919050565b600073ffffffffffffffffffffffffffffffffffffffff168473ffffffffffffffffffffffffffffffffffffffff1603610d25576040517f08c379a0000000000000000000000000000000000000000000000000000000008152600401610d1c90612d4c565b60405180910390fd5b6000610d2f61103c565b90506000610d3c85611992565b90506000610d4985611992565b9050610d5a83600089858589611a0c565b8460008088815260200190815260200160002060008973ffffffffffffffffffffffffffffffffffffffff1673ffffffffffffffffffffffffffffffffffffffff1681526020019081526020016000206000828254610db99190612d6c565b925050819055508673ffffffffffffffffffffffffffffffffffffffff16600073ffffffffffffffffffffffffffffffffffffffff168473ffffffffffffffffffffffffffffffffffffffff167fc3d58168c5ae7397731d063d5bbf3d657854427343f4c083240f7aacaa2d0f628989604051610e37929190612da0565b60405180910390a4610e4e83600089858589611a14565b610e5d83600089898989611a1c565b50505050505050565b80600a60008481526020019081526020016000209081610e869190612f75565b505050565b610e93611032565b6bffffffffffffffffffffffff16816bffffffffffffffffffffffff161115610ef1576040517f08c379a0000000000000000000000000000000000000000000000000000000008152600401610ee8906130b9565b60405180910390fd5b600073ffffffffffffffffffffffffffffffffffffffff168273ffffffffffffffffffffffffffffffffffffffff1603610f60576040517f08c379a0000000000000000000000000000000000000000000000000000000008152600401610f5790613125565b60405180910390fd5b60405180604001604052808373ffffffffffffffffffffffffffffffffffffffff168152602001826bffffffffffffffffffffffff168152506005600085815260200190815260200160002060008201518160000160006101000a81548173ffffffffffffffffffffffffffffffffffffffff021916908373ffffffffffffffffffffffffffffffffffffffff16021790555060208201518160000160146101000a8154816bffffffffffffffffffffffff02191690836bffffffffffffffffffffffff160217905550905050505050565b6000612710905090565b600033905090565b8151835114611088576040517f08c379a000000000000000000000000000000000000000000000000000000000815260040161107f906131b7565b60405180910390fd5b600073ffffffffffffffffffffffffffffffffffffffff168473ffffffffffffffffffffffffffffffffffffffff16036110f7576040517f08c379a00000000000000000000000000000000000000000000000000000000081526004016110ee90613249565b60405180910390fd5b600061110161103c565b9050611111818787878787611a0c565b60005b84518110156112c257600085828151811061113257611131612c19565b5b60200260200101519050600085838151811061115157611150612c19565b5b60200260200101519050600080600084815260200190815260200160002060008b73ffffffffffffffffffffffffffffffffffffffff1673ffffffffffffffffffffffffffffffffffffffff168152602001908152602001600020549050818110156111f2576040517f08c379a00000000000000000000000000000000000000000000000000000000081526004016111e9906132db565b60405180910390fd5b81810360008085815260200190815260200160002060008c73ffffffffffffffffffffffffffffffffffffffff1673ffffffffffffffffffffffffffffffffffffffff168152602001908152602001600020819055508160008085815260200190815260200160002060008b73ffffffffffffffffffffffffffffffffffffffff1673ffffffffffffffffffffffffffffffffffffffff16815260200190815260200160002060008282546112a79190612d6c565b92505081905550505050806112bb906129ab565b9050611114565b508473ffffffffffffffffffffffffffffffffffffffff168673ffffffffffffffffffffffffffffffffffffffff168273ffffffffffffffffffffffffffffffffffffffff167f4a39dc06d4c0dbc64b70af90fd698a233a518aa5d07e595d983b8c0526c8f7fb87876040516113399291906132fb565b60405180910390a461134f818787878787611a14565b61135d818787878787611bf3565b505050505050565b61136d61103c565b73ffffffffffffffffffffffffffffffffffffffff1661138b6109b0565b73ffffffffffffffffffffffffffffffffffffffff16146113e1576040517f08c379a00000000000000000000000000000000000000000000000000000000081526004016113d89061337e565b60405180910390fd5b565b6000600360009054906101000a900473ffffffffffffffffffffffffffffffffffffffff16905081600360006101000a81548173ffffffffffffffffffffffffffffffffffffffff021916908373ffffffffffffffffffffffffffffffffffffffff1602179055508173ffffffffffffffffffffffffffffffffffffffff168173ffffffffffffffffffffffffffffffffffffffff167f8be0079c531659141344cd1fd0a4f28419497f9722a3daafe3b4186f6b6457e060405160405180910390a35050565b8173ffffffffffffffffffffffffffffffffffffffff168373ffffffffffffffffffffffffffffffffffffffff1603611517576040517f08c379a000000000000000000000000000000000000000000000000000000000815260040161150e90613410565b60405180910390fd5b80600160008573ffffffffffffffffffffffffffffffffffffffff1673ffffffffffffffffffffffffffffffffffffffff16815260200190815260200160002060008473ffffffffffffffffffffffffffffffffffffffff1673ffffffffffffffffffffffffffffffffffffffff16815260200190815260200160002060006101000a81548160ff0219169083151502179055508173ffffffffffffffffffffffffffffffffffffffff168373ffffffffffffffffffffffffffffffffffffffff167f17307eab39ab6107e8899845ad3d59bd9653f200f220920489ca2b5937696c31836040516116089190612009565b60405180910390a3505050565b600073ffffffffffffffffffffffffffffffffffffffff168473ffffffffffffffffffffffffffffffffffffffff1603611684576040517f08c379a000000000000000000000000000000000000000000000000000000000815260040161167b90613249565b60405180910390fd5b600061168e61103c565b9050600061169b85611992565b905060006116a885611992565b90506116b8838989858589611a0c565b600080600088815260200190815260200160002060008a73ffffffffffffffffffffffffffffffffffffffff1673ffffffffffffffffffffffffffffffffffffffff1681526020019081526020016000205490508581101561174f576040517f08c379a0000000000000000000000000000000000000000000000000000000008152600401611746906132db565b60405180910390fd5b85810360008089815260200190815260200160002060008b73ffffffffffffffffffffffffffffffffffffffff1673ffffffffffffffffffffffffffffffffffffffff168152602001908152602001600020819055508560008089815260200190815260200160002060008a73ffffffffffffffffffffffffffffffffffffffff1673ffffffffffffffffffffffffffffffffffffffff16815260200190815260200160002060008282546118049190612d6c565b925050819055508773ffffffffffffffffffffffffffffffffffffffff168973ffffffffffffffffffffffffffffffffffffffff168573ffffffffffffffffffffffffffffffffffffffff167fc3d58168c5ae7397731d063d5bbf3d657854427343f4c083240f7aacaa2d0f628a8a604051611881929190612da0565b60405180910390a4611897848a8a86868a611a14565b6118a5848a8a8a8a8a611a1c565b505050505050505050565b60007fd9b67a26000000000000000000000000000000000000000000000000000000007bffffffffffffffffffffffffffffffffffffffffffffffffffffffff1916827bffffffffffffffffffffffffffffffffffffffffffffffffffffffff1916148061197b57507f0e89341c000000000000000000000000000000000000000000000000000000007bffffffffffffffffffffffffffffffffffffffffffffffffffffffff1916827bffffffffffffffffffffffffffffffffffffffffffffffffffffffff1916145b8061198b575061198a82611dca565b5b9050919050565b60606000600167ffffffffffffffff8111156119b1576119b061203f565b5b6040519080825280602002602001820160405280156119df5781602001602082028036833780820191505090505b50905082816000815181106119f7576119f6612c19565b5b60200260200101818152505080915050919050565b505050505050565b505050505050565b611a3b8473ffffffffffffffffffffffffffffffffffffffff16611e34565b15611beb578373ffffffffffffffffffffffffffffffffffffffff1663f23a6e6187878686866040518663ffffffff1660e01b8152600401611a81959493929190613485565b6020604051808303816000875af1925050508015611abd57506040513d601f19601f82011682018060405250810190611aba91906134f4565b60015b611b6257611ac961352e565b806308c379a003611b255750611add613550565b80611ae85750611b27565b806040517f08c379a0000000000000000000000000000000000000000000000000000000008152600401611b1c9190612245565b60405180910390fd5b505b6040517f08c379a0000000000000000000000000000000000000000000000000000000008152600401611b5990613652565b60405180910390fd5b63f23a6e6160e01b7bffffffffffffffffffffffffffffffffffffffffffffffffffffffff1916817bffffffffffffffffffffffffffffffffffffffffffffffffffffffff191614611be9576040517f08c379a0000000000000000000000000000000000000000000000000000000008152600401611be0906136e4565b60405180910390fd5b505b505050505050565b611c128473ffffffffffffffffffffffffffffffffffffffff16611e34565b15611dc2578373ffffffffffffffffffffffffffffffffffffffff1663bc197c8187878686866040518663ffffffff1660e01b8152600401611c58959493929190613704565b6020604051808303816000875af1925050508015611c9457506040513d601f19601f82011682018060405250810190611c9191906134f4565b60015b611d3957611ca061352e565b806308c379a003611cfc5750611cb4613550565b80611cbf5750611cfe565b806040517f08c379a0000000000000000000000000000000000000000000000000000000008152600401611cf39190612245565b60405180910390fd5b505b6040517f08c379a0000000000000000000000000000000000000000000000000000000008152600401611d3090613652565b60405180910390fd5b63bc197c8160e01b7bffffffffffffffffffffffffffffffffffffffffffffffffffffffff1916817bffffffffffffffffffffffffffffffffffffffffffffffffffffffff191614611dc0576040517f08c379a0000000000000000000000000000000000000000000000000000000008152600401611db7906136e4565b60405180910390fd5b505b505050505050565b60007f01ffc9a7000000000000000000000000000000000000000000000000000000007bffffffffffffffffffffffffffffffffffffffffffffffffffffffff1916827bffffffffffffffffffffffffffffffffffffffffffffffffffffffff1916149050919050565b6000808273ffffffffffffffffffffffffffffffffffffffff163b119050919050565b6000604051905090565b600080fd5b600080fd5b600073ffffffffffffffffffffffffffffffffffffffff82169050919050565b6000611e9682611e6b565b9050919050565b611ea681611e8b565b8114611eb157600080fd5b50565b600081359050611ec381611e9d565b92915050565b6000819050919050565b611edc81611ec9565b8114611ee757600080fd5b50565b600081359050611ef981611ed3565b92915050565b60008060408385031215611f1657611f15611e61565b5b6000611f2485828601611eb4565b9250506020611f3585828601611eea565b9150509250929050565b611f4881611ec9565b82525050565b6000602082019050611f636000830184611f3f565b92915050565b60007fffffffff0000000000000000000000000000000000000000000000000000000082169050919050565b611f9e81611f69565b8114611fa957600080fd5b50565b600081359050611fbb81611f95565b92915050565b600060208284031215611fd757611fd6611e61565b5b6000611fe584828501611fac565b91505092915050565b60008115159050919050565b61200381611fee565b82525050565b600060208201905061201e6000830184611ffa565b92915050565b600080fd5b600080fd5b6000601f19601f8301169050919050565b7f4e487b7100000000000000000000000000000000000000000000000000000000600052604160045260246000fd5b6120778261202e565b810181811067ffffffffffffffff821117156120965761209561203f565b5b80604052505050565b60006120a9611e57565b90506120b5828261206e565b919050565b600067ffffffffffffffff8211156120d5576120d461203f565b5b6120de8261202e565b9050602081019050919050565b82818337600083830152505050565b600061210d612108846120ba565b61209f565b90508281526020810184848401111561212957612128612029565b5b6121348482856120eb565b509392505050565b600082601f83011261215157612150612024565b5b81356121618482602086016120fa565b91505092915050565b6000806040838503121561218157612180611e61565b5b600083013567ffffffffffffffff81111561219f5761219e611e66565b5b6121ab8582860161213c565b92505060206121bc85828601611eea565b9150509250929050565b600081519050919050565b600082825260208201905092915050565b60005b838110156122005780820151818401526020810190506121e5565b60008484015250505050565b6000612217826121c6565b61222181856121d1565b93506122318185602086016121e2565b61223a8161202e565b840191505092915050565b6000602082019050818103600083015261225f818461220c565b905092915050565b60006020828403121561227d5761227c611e61565b5b600061228b84828501611eea565b91505092915050565b600080604083850312156122ab576122aa611e61565b5b60006122b985828601611eea565b92505060206122ca85828601611eea565b9150509250929050565b6122dd81611e8b565b82525050565b60006040820190506122f860008301856122d4565b6123056020830184611f3f565b9392505050565b600067ffffffffffffffff8211156123275761232661203f565b5b602082029050602081019050919050565b600080fd5b600061235061234b8461230c565b61209f565b9050808382526020820190506020840283018581111561237357612372612338565b5b835b8181101561239c57806123888882611eea565b845260208401935050602081019050612375565b5050509392505050565b600082601f8301126123bb576123ba612024565b5b81356123cb84826020860161233d565b91505092915050565b600067ffffffffffffffff8211156123ef576123ee61203f565b5b6123f88261202e565b9050602081019050919050565b6000612418612413846123d4565b61209f565b90508281526020810184848401111561243457612433612029565b5b61243f8482856120eb565b509392505050565b600082601f83011261245c5761245b612024565b5b813561246c848260208601612405565b91505092915050565b600080600080600060a0868803121561249157612490611e61565b5b600061249f88828901611eb4565b95505060206124b088828901611eb4565b945050604086013567ffffffffffffffff8111156124d1576124d0611e66565b5b6124dd888289016123a6565b935050606086013567ffffffffffffffff8111156124fe576124fd611e66565b5b61250a888289016123a6565b925050608086013567ffffffffffffffff81111561252b5761252a611e66565b5b61253788828901612447565b9150509295509295909350565b600067ffffffffffffffff82111561255f5761255e61203f565b5b602082029050602081019050919050565b600061258361257e84612544565b61209f565b905080838252602082019050602084028301858111156125a6576125a5612338565b5b835b818110156125cf57806125bb8882611eb4565b8452602084019350506020810190506125a8565b5050509392505050565b600082601f8301126125ee576125ed612024565b5b81356125fe848260208601612570565b91505092915050565b6000806040838503121561261e5761261d611e61565b5b600083013567ffffffffffffffff81111561263c5761263b611e66565b5b612648858286016125d9565b925050602083013567ffffffffffffffff81111561266957612668611e66565b5b612675858286016123a6565b9150509250929050565b600081519050919050565b600082825260208201905092915050565b6000819050602082019050919050565b6126b481611ec9565b82525050565b60006126c683836126ab565b60208301905092915050565b6000602082019050919050565b60006126ea8261267f565b6126f4818561268a565b93506126ff8361269b565b8060005b8381101561273057815161271788826126ba565b9750612722836126d2565b925050600181019050612703565b5085935050505092915050565b6000602082019050818103600083015261275781846126df565b905092915050565b600060208201905061277460008301846122d4565b92915050565b61278381611fee565b811461278e57600080fd5b50565b6000813590506127a08161277a565b92915050565b600080604083850312156127bd576127bc611e61565b5b60006127cb85828601611eb4565b92505060206127dc85828601612791565b9150509250929050565b600080604083850312156127fd576127fc611e61565b5b600061280b85828601611eb4565b925050602061281c85828601611eb4565b9150509250929050565b600080600080600060a0868803121561284257612841611e61565b5b600061285088828901611eb4565b955050602061286188828901611eb4565b945050604061287288828901611eea565b935050606061288388828901611eea565b925050608086013567ffffffffffffffff8111156128a4576128a3611e66565b5b6128b088828901612447565b9150509295509295909350565b6000602082840312156128d3576128d2611e61565b5b60006128e184828501611eb4565b91505092915050565b7f455243313135353a2061646472657373207a65726f206973206e6f742061207660008201527f616c6964206f776e657200000000000000000000000000000000000000000000602082015250565b6000612946602a836121d1565b9150612951826128ea565b604082019050919050565b6000602082019050818103600083015261297581612939565b9050919050565b7f4e487b7100000000000000000000000000000000000000000000000000000000600052601160045260246000fd5b60006129b682611ec9565b91507fffffffffffffffffffffffffffffffffffffffffffffffffffffffffffffffff82036129e8576129e761297c565b5b600182019050919050565b7f4e487b7100000000000000000000000000000000000000000000000000000000600052602260045260246000fd5b60006002820490506001821680612a3a57607f821691505b602082108103612a4d57612a4c6129f3565b5b50919050565b6000612a5e82611ec9565b9150612a6983611ec9565b9250828202612a7781611ec9565b91508282048414831517612a8e57612a8d61297c565b5b5092915050565b7f4e487b7100000000000000000000000000000000000000000000000000000000600052601260045260246000fd5b6000612acf82611ec9565b9150612ada83611ec9565b925082612aea57612ae9612a95565b5b828204905092915050565b7f455243313135353a2063616c6c6572206973206e6f7420746f6b656e206f776e60008201527f6572206f7220617070726f766564000000000000000000000000000000000000602082015250565b6000612b51602e836121d1565b9150612b5c82612af5565b604082019050919050565b60006020820190508181036000830152612b8081612b44565b9050919050565b7f455243313135353a206163636f756e747320616e6420696473206c656e67746860008201527f206d69736d617463680000000000000000000000000000000000000000000000602082015250565b6000612be36029836121d1565b9150612bee82612b87565b604082019050919050565b60006020820190508181036000830152612c1281612bd6565b9050919050565b7f4e487b7100000000000000000000000000000000000000000000000000000000600052603260045260246000fd5b7f4f776e61626c653a206e6577206f776e657220697320746865207a65726f206160008201527f6464726573730000000000000000000000000000000000000000000000000000602082015250565b6000612ca46026836121d1565b9150612caf82612c48565b604082019050919050565b60006020820190508181036000830152612cd381612c97565b9050919050565b7f455243313135353a206d696e7420746f20746865207a65726f2061646472657360008201527f7300000000000000000000000000000000000000000000000000000000000000602082015250565b6000612d366021836121d1565b9150612d4182612cda565b604082019050919050565b60006020820190508181036000830152612d6581612d29565b9050919050565b6000612d7782611ec9565b9150612d8283611ec9565b9250828201905080821115612d9a57612d9961297c565b5b92915050565b6000604082019050612db56000830185611f3f565b612dc26020830184611f3f565b9392505050565b60008190508160005260206000209050919050565b60006020601f8301049050919050565b600082821b905092915050565b600060088302612e2b7fffffffffffffffffffffffffffffffffffffffffffffffffffffffffffffffff82612dee565b612e358683612dee565b95508019841693508086168417925050509392505050565b6000819050919050565b6000612e72612e6d612e6884611ec9565b612e4d565b611ec9565b9050919050565b6000819050919050565b612e8c83612e57565b612ea0612e9882612e79565b848454612dfb565b825550505050565b600090565b612eb5612ea8565b612ec0818484612e83565b505050565b5b81811015612ee457612ed9600082612ead565b600181019050612ec6565b5050565b601f821115612f2957612efa81612dc9565b612f0384612dde565b81016020851015612f12578190505b612f26612f1e85612dde565b830182612ec5565b50505b505050565b600082821c905092915050565b6000612f4c60001984600802612f2e565b1980831691505092915050565b6000612f658383612f3b565b9150826002028217905092915050565b612f7e826121c6565b67ffffffffffffffff811115612f9757612f9661203f565b5b612fa18254612a22565b612fac828285612ee8565b600060209050601f831160018114612fdf5760008415612fcd578287015190505b612fd78582612f59565b86555061303f565b601f198416612fed86612dc9565b60005b8281101561301557848901518255600182019150602085019450602081019050612ff0565b86831015613032578489015161302e601f891682612f3b565b8355505b6001600288020188555050505b505050505050565b7f455243323938313a20726f79616c7479206665652077696c6c2065786365656460008201527f2073616c65507269636500000000000000000000000000000000000000000000602082015250565b60006130a3602a836121d1565b91506130ae82613047565b604082019050919050565b600060208201905081810360008301526130d281613096565b9050919050565b7f455243323938313a20496e76616c696420706172616d65746572730000000000600082015250565b600061310f601b836121d1565b915061311a826130d9565b602082019050919050565b6000602082019050818103600083015261313e81613102565b9050919050565b7f455243313135353a2069647320616e6420616d6f756e7473206c656e6774682060008201527f6d69736d61746368000000000000000000000000000000000000000000000000602082015250565b60006131a16028836121d1565b91506131ac82613145565b604082019050919050565b600060208201905081810360008301526131d081613194565b9050919050565b7f455243313135353a207472616e7366657220746f20746865207a65726f20616460008201527f6472657373000000000000000000000000000000000000000000000000000000602082015250565b60006132336025836121d1565b915061323e826131d7565b604082019050919050565b6000602082019050818103600083015261326281613226565b9050919050565b7f455243313135353a20696e73756666696369656e742062616c616e636520666f60008201527f72207472616e7366657200000000000000000000000000000000000000000000602082015250565b60006132c5602a836121d1565b91506132d082613269565b604082019050919050565b600060208201905081810360008301526132f4816132b8565b9050919050565b6000604082019050818103600083015261331581856126df565b9050818103602083015261332981846126df565b90509392505050565b7f4f776e61626c653a2063616c6c6572206973206e6f7420746865206f776e6572600082015250565b60006133686020836121d1565b915061337382613332565b602082019050919050565b600060208201905081810360008301526133978161335b565b9050919050565b7f455243313135353a2073657474696e6720617070726f76616c2073746174757360008201527f20666f722073656c660000000000000000000000000000000000000000000000602082015250565b60006133fa6029836121d1565b91506134058261339e565b604082019050919050565b60006020820190508181036000830152613429816133ed565b9050919050565b600081519050919050565b600082825260208201905092915050565b600061345782613430565b613461818561343b565b93506134718185602086016121e2565b61347a8161202e565b840191505092915050565b600060a08201905061349a60008301886122d4565b6134a760208301876122d4565b6134b46040830186611f3f565b6134c16060830185611f3f565b81810360808301526134d3818461344c565b90509695505050505050565b6000815190506134ee81611f95565b92915050565b60006020828403121561350a57613509611e61565b5b6000613518848285016134df565b91505092915050565b60008160e01c9050919050565b600060033d111561354d5760046000803e61354a600051613521565b90505b90565b600060443d106135dd57613562611e57565b60043d036004823e80513d602482011167ffffffffffffffff8211171561358a5750506135dd565b808201805167ffffffffffffffff8111156135a857505050506135dd565b80602083010160043d0385018111156135c55750505050506135dd565b6135d48260200185018661206e565b82955050505050505b90565b7f455243313135353a207472616e7366657220746f206e6f6e2d4552433131353560008201527f526563656976657220696d706c656d656e746572000000000000000000000000602082015250565b600061363c6034836121d1565b9150613647826135e0565b604082019050919050565b6000602082019050818103600083015261366b8161362f565b9050919050565b7f455243313135353a204552433131353552656365697665722072656a6563746560008201527f6420746f6b656e73000000000000000000000000000000000000000000000000602082015250565b60006136ce6028836121d1565b91506136d982613672565b604082019050919050565b600060208201905081810360008301526136fd816136c1565b9050919050565b600060a08201905061371960008301886122d4565b61372660208301876122d4565b818103604083015261373881866126df565b9050818103606083015261374c81856126df565b90508181036080830152613760818461344c565b9050969550505050505056fea26469706673582212201c74bc4653e2b3d90d7c2928999899e7e386a878010b0a530b0e1e3052db0de064736f6c63430008110033",
  "linkReferences": {},
  "deployedLinkReferences": {}
}