{
  "_format": "hh-sol-artifact-1",
  "contractName": "Marketplace",
  "sourceName": "contracts/Marketplace.sol",
  "abi": [
    {
      "inputs": [
        {
          "internalType": "uint256",
          "name": "_feePercent",
          "type": "uint256"
        }
      ],
      "stateMutability": "nonpayable",
      "type": "constructor"
    },
    {
      "anonymous": false,
      "inputs": [
        {
          "indexed": true,
          "internalType": "address",
          "name": "creater",
          "type": "address"
        },
        {
          "indexed": false,
          "internalType": "uint256",
          "name": "auctionCounting",
          "type": "uint256"
        },
        {
          "indexed": true,
          "internalType": "address",
          "name": "nft",
          "type": "address"
        },
        {
          "indexed": false,
          "internalType": "uint256",
          "name": "tokenId",
          "type": "uint256"
        },
        {
          "indexed": false,
          "internalType": "uint256",
          "name": "pricePlusFee",
          "type": "uint256"
        },
        {
          "indexed": false,
          "internalType": "uint256",
          "name": "amount",
          "type": "uint256"
        }
      ],
      "name": "AuctionCreated",
      "type": "event"
    },
    {
      "anonymous": false,
      "inputs": [
        {
          "indexed": false,
          "internalType": "uint256",
          "name": "itemId",
          "type": "uint256"
        },
        {
          "indexed": true,
          "internalType": "address",
          "name": "nft",
          "type": "address"
        },
        {
          "indexed": false,
          "internalType": "uint256",
          "name": "tokenId",
          "type": "uint256"
        },
        {
          "indexed": false,
          "internalType": "uint256",
          "name": "pricePlusFee",
          "type": "uint256"
        },
        {
          "indexed": true,
          "internalType": "address",
          "name": "seller",
          "type": "address"
        },
        {
          "indexed": true,
          "internalType": "address",
          "name": "buyer",
          "type": "address"
        }
      ],
      "name": "Bought",
      "type": "event"
    },
    {
      "anonymous": false,
      "inputs": [
        {
          "indexed": false,
          "internalType": "uint256",
          "name": "itemId",
          "type": "uint256"
        },
        {
          "indexed": true,
          "internalType": "address",
          "name": "nft",
          "type": "address"
        },
        {
          "indexed": false,
          "internalType": "uint256",
          "name": "tokenId",
          "type": "uint256"
        },
        {
          "indexed": false,
          "internalType": "uint256",
          "name": "pricePlusFee",
          "type": "uint256"
        },
        {
          "indexed": true,
          "internalType": "address",
          "name": "seller",
          "type": "address"
        },
        {
          "indexed": false,
          "internalType": "uint256",
          "name": "amount",
          "type": "uint256"
        }
      ],
      "name": "Listed",
      "type": "event"
    },
    {
      "inputs": [],
      "name": "auctionCount",
      "outputs": [
        {
          "internalType": "uint256",
          "name": "",
          "type": "uint256"
        }
      ],
      "stateMutability": "view",
      "type": "function"
    },
    {
      "inputs": [
        {
          "internalType": "uint256",
          "name": "",
          "type": "uint256"
        }
      ],
      "name": "auctions",
      "outputs": [
        {
          "internalType": "uint256",
          "name": "auctionId",
          "type": "uint256"
        },
        {
          "internalType": "contract IERC1155",
          "name": "nft",
          "type": "address"
        },
        {
          "internalType": "uint256",
          "name": "tokenId",
          "type": "uint256"
        },
        {
          "internalType": "uint256",
          "name": "price",
          "type": "uint256"
        },
        {
          "internalType": "uint256",
          "name": "pricePlusFee",
          "type": "uint256"
        },
        {
          "internalType": "address payable",
          "name": "creater",
          "type": "address"
        },
        {
          "internalType": "uint256",
          "name": "amount",
          "type": "uint256"
        },
        {
          "internalType": "bool",
          "name": "sold",
          "type": "bool"
        },
        {
          "internalType": "uint256",
          "name": "startTime",
          "type": "uint256"
        },
        {
          "internalType": "uint256",
          "name": "endTime",
          "type": "uint256"
        }
      ],
      "stateMutability": "view",
      "type": "function"
    },
    {
      "inputs": [
        {
          "internalType": "uint256",
          "name": "",
          "type": "uint256"
        }
      ],
      "name": "bids",
      "outputs": [
        {
          "internalType": "uint256",
          "name": "highestBid",
          "type": "uint256"
        },
        {
          "internalType": "address",
          "name": "highestbidder",
          "type": "address"
        }
      ],
      "stateMutability": "view",
      "type": "function"
    },
    {
      "inputs": [
        {
          "internalType": "address",
          "name": "",
          "type": "address"
        }
      ],
      "name": "blockStatus",
      "outputs": [
        {
          "internalType": "bool",
          "name": "",
          "type": "bool"
        }
      ],
      "stateMutability": "view",
      "type": "function"
    },
    {
      "inputs": [
        {
          "internalType": "address",
          "name": "_user",
          "type": "address"
        }
      ],
      "name": "blockUser",
      "outputs": [],
      "stateMutability": "nonpayable",
      "type": "function"
    },
    {
      "inputs": [
        {
          "internalType": "uint256",
          "name": "_auctionId",
          "type": "uint256"
        }
      ],
      "name": "burnAuction",
      "outputs": [],
      "stateMutability": "nonpayable",
      "type": "function"
    },
    {
      "inputs": [
        {
          "internalType": "uint256",
          "name": "_itemId",
          "type": "uint256"
        }
      ],
      "name": "burnItem",
      "outputs": [],
      "stateMutability": "nonpayable",
      "type": "function"
    },
    {
      "inputs": [
        {
          "internalType": "uint256",
          "name": "_itemId",
          "type": "uint256"
        }
      ],
      "name": "cancelList",
      "outputs": [
        {
          "internalType": "bool",
          "name": "",
          "type": "bool"
        }
      ],
      "stateMutability": "payable",
      "type": "function"
    },
    {
      "inputs": [
        {
          "internalType": "uint256",
          "name": "_auctionCount",
          "type": "uint256"
        },
        {
          "internalType": "contract IERC1155",
          "name": "_nft",
          "type": "address"
        }
      ],
      "name": "claimAuction",
      "outputs": [],
      "stateMutability": "nonpayable",
      "type": "function"
    },
    {
      "inputs": [
        {
          "internalType": "contract IERC1155",
          "name": "_nft",
          "type": "address"
        },
        {
          "internalType": "uint256",
          "name": "_tokenId",
          "type": "uint256"
        },
        {
          "internalType": "uint256",
          "name": "_price",
          "type": "uint256"
        },
        {
          "internalType": "uint256",
          "name": "_amount",
          "type": "uint256"
        },
        {
          "internalType": "uint256",
          "name": "_duration",
          "type": "uint256"
        }
      ],
      "name": "createAuction",
      "outputs": [],
      "stateMutability": "nonpayable",
      "type": "function"
    },
    {
      "inputs": [],
      "name": "feePercent",
      "outputs": [
        {
          "internalType": "uint256",
          "name": "",
          "type": "uint256"
        }
      ],
      "stateMutability": "view",
      "type": "function"
    },
    {
      "inputs": [],
      "name": "itemCount",
      "outputs": [
        {
          "internalType": "uint256",
          "name": "",
          "type": "uint256"
        }
      ],
      "stateMutability": "view",
      "type": "function"
    },
    {
      "inputs": [
        {
          "internalType": "uint256",
          "name": "",
          "type": "uint256"
        }
      ],
      "name": "items",
      "outputs": [
        {
          "internalType": "uint256",
          "name": "itemId",
          "type": "uint256"
        },
        {
          "internalType": "contract IERC1155",
          "name": "nft",
          "type": "address"
        },
        {
          "internalType": "uint256",
          "name": "tokenId",
          "type": "uint256"
        },
        {
          "internalType": "uint256",
          "name": "price",
          "type": "uint256"
        },
        {
          "internalType": "uint256",
          "name": "pricePlusFee",
          "type": "uint256"
        },
        {
          "internalType": "address payable",
          "name": "seller",
          "type": "address"
        },
        {
          "internalType": "uint256",
          "name": "totalAmount",
          "type": "uint256"
        },
        {
          "internalType": "uint256",
          "name": "amount",
          "type": "uint256"
        },
        {
          "internalType": "bool",
          "name": "sold",
          "type": "bool"
        }
      ],
      "stateMutability": "view",
      "type": "function"
    },
    {
      "inputs": [
        {
          "internalType": "contract IERC1155",
          "name": "_nft",
          "type": "address"
        },
        {
          "internalType": "uint256",
          "name": "_tokenId",
          "type": "uint256"
        },
        {
          "internalType": "uint256",
          "name": "_price",
          "type": "uint256"
        },
        {
          "internalType": "uint256",
          "name": "_amount",
          "type": "uint256"
        }
      ],
      "name": "makeItem",
      "outputs": [],
      "stateMutability": "nonpayable",
      "type": "function"
    },
    {
      "inputs": [],
      "name": "marketplaceCommition",
      "outputs": [
        {
          "internalType": "uint256",
          "name": "",
          "type": "uint256"
        }
      ],
      "stateMutability": "view",
      "type": "function"
    },
    {
      "inputs": [],
      "name": "minBidIncrement",
      "outputs": [
        {
          "internalType": "uint256",
          "name": "",
          "type": "uint256"
        }
      ],
      "stateMutability": "view",
      "type": "function"
    },
    {
      "inputs": [
        {
          "internalType": "address",
          "name": "",
          "type": "address"
        },
        {
          "internalType": "address",
          "name": "",
          "type": "address"
        },
        {
          "internalType": "uint256[]",
          "name": "",
          "type": "uint256[]"
        },
        {
          "internalType": "uint256[]",
          "name": "",
          "type": "uint256[]"
        },
        {
          "internalType": "bytes",
          "name": "",
          "type": "bytes"
        }
      ],
      "name": "onERC1155BatchReceived",
      "outputs": [
        {
          "internalType": "bytes4",
          "name": "",
          "type": "bytes4"
        }
      ],
      "stateMutability": "nonpayable",
      "type": "function"
    },
    {
      "inputs": [
        {
          "internalType": "address",
          "name": "",
          "type": "address"
        },
        {
          "internalType": "address",
          "name": "",
          "type": "address"
        },
        {
          "internalType": "uint256",
          "name": "",
          "type": "uint256"
        },
        {
          "internalType": "uint256",
          "name": "",
          "type": "uint256"
        },
        {
          "internalType": "bytes",
          "name": "",
          "type": "bytes"
        }
      ],
      "name": "onERC1155Received",
      "outputs": [
        {
          "internalType": "bytes4",
          "name": "",
          "type": "bytes4"
        }
      ],
      "stateMutability": "nonpayable",
      "type": "function"
    },
    {
      "inputs": [],
      "name": "owner",
      "outputs": [
        {
          "internalType": "address payable",
          "name": "",
          "type": "address"
        }
      ],
      "stateMutability": "view",
      "type": "function"
    },
    {
      "inputs": [
        {
          "internalType": "uint256",
          "name": "_auctionCount",
          "type": "uint256"
        }
      ],
      "name": "placeBid",
      "outputs": [],
      "stateMutability": "payable",
      "type": "function"
    },
    {
      "inputs": [
        {
          "internalType": "uint256",
          "name": "_itemId",
          "type": "uint256"
        },
        {
          "internalType": "uint256",
          "name": "_amount",
          "type": "uint256"
        },
        {
          "internalType": "address",
          "name": "_nft",
          "type": "address"
        }
      ],
      "name": "purchaseItem",
      "outputs": [],
      "stateMutability": "payable",
      "type": "function"
    },
    {
      "inputs": [],
      "name": "register",
      "outputs": [],
      "stateMutability": "payable",
      "type": "function"
    },
    {
      "inputs": [
        {
          "internalType": "address",
          "name": "",
          "type": "address"
        }
      ],
      "name": "registration",
      "outputs": [
        {
          "internalType": "bool",
          "name": "",
          "type": "bool"
        }
      ],
      "stateMutability": "view",
      "type": "function"
    },
    {
      "inputs": [],
      "name": "registrationFee",
      "outputs": [
        {
          "internalType": "uint256",
          "name": "",
          "type": "uint256"
        }
      ],
      "stateMutability": "view",
      "type": "function"
    },
    {
      "inputs": [],
      "name": "sellPay",
      "outputs": [
        {
          "internalType": "uint256",
          "name": "",
          "type": "uint256"
        }
      ],
      "stateMutability": "view",
      "type": "function"
    },
    {
      "inputs": [
        {
          "internalType": "bytes4",
          "name": "interfaceId",
          "type": "bytes4"
        }
      ],
      "name": "supportsInterface",
      "outputs": [
        {
          "internalType": "bool",
          "name": "",
          "type": "bool"
        }
      ],
      "stateMutability": "view",
      "type": "function"
    },
    {
      "inputs": [
        {
          "internalType": "uint256",
          "name": "_updatedMarketFee",
          "type": "uint256"
        }
      ],
      "name": "updateFeePercent",
      "outputs": [],
      "stateMutability": "nonpayable",
      "type": "function"
    },
    {
      "inputs": [
        {
          "internalType": "uint256",
          "name": "_updatedMinBidInc",
          "type": "uint256"
        }
      ],
      "name": "updateMinBidIncrement",
      "outputs": [],
      "stateMutability": "nonpayable",
      "type": "function"
    },
    {
      "inputs": [
        {
          "internalType": "uint256",
          "name": "_updatedRegFee",
          "type": "uint256"
        }
      ],
      "name": "updateRegistrationFee",
      "outputs": [],
      "stateMutability": "nonpayable",
      "type": "function"
    }
  ],
  "bytecode": "0x60a060405266038d7ea4c6800060045566038d7ea4c680006005553480156200002757600080fd5b50604051620052d5380380620052d583398181016040528101906200004d91906200012f565b60016000819055503373ffffffffffffffffffffffffffffffffffffffff1660808173ffffffffffffffffffffffffffffffffffffffff1681525050806001819055506001600b60003373ffffffffffffffffffffffffffffffffffffffff1673ffffffffffffffffffffffffffffffffffffffff16815260200190815260200160002060006101000a81548160ff0219169083151502179055505062000161565b600080fd5b6000819050919050565b6200010981620000f4565b81146200011557600080fd5b50565b6000815190506200012981620000fe565b92915050565b600060208284031215620001485762000147620000ef565b5b6000620001588482850162000118565b91505092915050565b60805161510b620001ca6000396000818161077e015281816109a901528181610ada01528181610ca801528181610de10152818161134201528181611c6901528181611fae01528181612a2701528181612f4d015281816132260152613475015261510b6000f3fe6080604052600436106101c25760003560e01c80636bfb0d01116100f7578063b8f5d26a11610095578063c9c9d2d811610064578063c9c9d2d814610629578063d3899d5414610659578063f05c5fed14610696578063f23a6e61146106bf576101c2565b8063b8f5d26a14610562578063bc197c811461057e578063be5fe1d4146105bb578063bfb231d2146105e4576101c2565b8063961c9ae4116100d1578063961c9ae4146104c95780639979ef45146104f2578063ab9653111461050e578063af582c6b14610539576101c2565b80636bfb0d01146104485780637fd6f15c146104735780638da5cb5b1461049e576101c2565b8063335b115e11610164578063571a26a01161013e578063571a26a014610387578063576cc0f7146103cd5780635ecb7bdc146103f6578063696aae081461041f576101c2565b8063335b115e146102f55780633da01325146103205780634423c5f114610349576101c2565b80630840605a116101a05780630840605a1461025857806314c44e09146102955780631aa3a008146102c05780632ad71573146102ca576101c2565b806301ffc9a7146101c757806307e1d72314610204578063083759e01461022f575b600080fd5b3480156101d357600080fd5b506101ee60048036038101906101e99190613672565b6106fc565b6040516101fb91906136ba565b60405180910390f35b34801561021057600080fd5b50610219610776565b60405161022691906136ee565b60405180910390f35b34801561023b57600080fd5b5061025660048036038101906102519190613735565b61077c565b005b34801561026457600080fd5b5061027f600480360381019061027a91906137c0565b610814565b60405161028c91906136ba565b60405180910390f35b3480156102a157600080fd5b506102aa610834565b6040516102b791906136ee565b60405180910390f35b6102c861083a565b005b3480156102d657600080fd5b506102df610acc565b6040516102ec91906136ee565b60405180910390f35b34801561030157600080fd5b5061030a610ad2565b60405161031791906136ee565b60405180910390f35b34801561032c57600080fd5b50610347600480360381019061034291906137c0565b610ad8565b005b34801561035557600080fd5b50610370600480360381019061036b9190613735565b610bc1565b60405161037e9291906137fc565b60405180910390f35b34801561039357600080fd5b506103ae60048036038101906103a99190613735565b610c05565b6040516103c49a999897969594939291906138a5565b60405180910390f35b3480156103d957600080fd5b506103f460048036038101906103ef9190613735565b610ca6565b005b34801561040257600080fd5b5061041d60048036038101906104189190613735565b610ddf565b005b34801561042b57600080fd5b506104466004803603810190610441919061397f565b610f20565b005b34801561045457600080fd5b5061045d611334565b60405161046a91906136ee565b60405180910390f35b34801561047f57600080fd5b5061048861133a565b60405161049591906136ee565b60405180910390f35b3480156104aa57600080fd5b506104b3611340565b6040516104c091906139e6565b60405180910390f35b3480156104d557600080fd5b506104f060048036038101906104eb9190613a01565b611364565b005b61050c60048036038101906105079190613735565b6117bd565b005b34801561051a57600080fd5b50610523611c61565b60405161053091906136ee565b60405180910390f35b34801561054557600080fd5b50610560600480360381019061055b9190613735565b611c67565b005b61057c60048036038101906105779190613a7c565b611cff565b005b34801561058a57600080fd5b506105a560048036038101906105a09190613cdd565b61282e565b6040516105b29190613dbb565b60405180910390f35b3480156105c757600080fd5b506105e260048036038101906105dd9190613dd6565b612843565b005b3480156105f057600080fd5b5061060b60048036038101906106069190613735565b612ce4565b60405161062099989796959493929190613e16565b60405180910390f35b610643600480360381019061063e9190613735565b612d7f565b60405161065091906136ba565b60405180910390f35b34801561066557600080fd5b50610680600480360381019061067b91906137c0565b613453565b60405161068d91906136ba565b60405180910390f35b3480156106a257600080fd5b506106bd60048036038101906106b89190613735565b613473565b005b3480156106cb57600080fd5b506106e660048036038101906106e19190613ea3565b61350b565b6040516106f39190613dbb565b60405180910390f35b60007f4e2312e0000000000000000000000000000000000000000000000000000000007bffffffffffffffffffffffffffffffffffffffffffffffffffffffff1916827bffffffffffffffffffffffffffffffffffffffffffffffffffffffff1916148061076f575061076e82613520565b5b9050919050565b60065481565b7f000000000000000000000000000000000000000000000000000000000000000073ffffffffffffffffffffffffffffffffffffffff163373ffffffffffffffffffffffffffffffffffffffff161461080a576040517f08c379a000000000000000000000000000000000000000000000000000000000815260040161080190613fbd565b60405180910390fd5b8060048190555050565b600b6020528060005260406000206000915054906101000a900460ff1681565b60055481565b60001515600c60003373ffffffffffffffffffffffffffffffffffffffff1673ffffffffffffffffffffffffffffffffffffffff16815260200190815260200160002060009054906101000a900460ff161515146108cd576040517f08c379a00000000000000000000000000000000000000000000000000000000081526004016108c490614029565b60405180910390fd5b600554341015610912576040517f08c379a000000000000000000000000000000000000000000000000000000000815260040161090990614095565b60405180910390fd5b60001515600b60003373ffffffffffffffffffffffffffffffffffffffff1673ffffffffffffffffffffffffffffffffffffffff16815260200190815260200160002060009054906101000a900460ff161515146109a5576040517f08c379a000000000000000000000000000000000000000000000000000000000815260040161099c90614101565b60405180910390fd5b60007f000000000000000000000000000000000000000000000000000000000000000073ffffffffffffffffffffffffffffffffffffffff16346040516109eb90614152565b60006040518083038185875af1925050503d8060008114610a28576040519150601f19603f3d011682016040523d82523d6000602084013e610a2d565b606091505b5050905080610a71576040517f08c379a0000000000000000000000000000000000000000000000000000000008152600401610a68906141b3565b60405180910390fd5b6001600b60003373ffffffffffffffffffffffffffffffffffffffff1673ffffffffffffffffffffffffffffffffffffffff16815260200190815260200160002060006101000a81548160ff02191690831515021790555050565b60035481565b60045481565b7f000000000000000000000000000000000000000000000000000000000000000073ffffffffffffffffffffffffffffffffffffffff163373ffffffffffffffffffffffffffffffffffffffff1614610b66576040517f08c379a0000000000000000000000000000000000000000000000000000000008152600401610b5d90613fbd565b60405180910390fd5b6001600c60008373ffffffffffffffffffffffffffffffffffffffff1673ffffffffffffffffffffffffffffffffffffffff16815260200190815260200160002060006101000a81548160ff02191690831515021790555050565b600a6020528060005260406000206000915090508060000154908060010160009054906101000a900473ffffffffffffffffffffffffffffffffffffffff16905082565b60096020528060005260406000206000915090508060000154908060010160009054906101000a900473ffffffffffffffffffffffffffffffffffffffff16908060020154908060030154908060040154908060050160009054906101000a900473ffffffffffffffffffffffffffffffffffffffff16908060060154908060070160009054906101000a900460ff1690806008015490806009015490508a565b7f000000000000000000000000000000000000000000000000000000000000000073ffffffffffffffffffffffffffffffffffffffff163373ffffffffffffffffffffffffffffffffffffffff1614610d34576040517f08c379a0000000000000000000000000000000000000000000000000000000008152600401610d2b90613fbd565b60405180910390fd5b600860008281526020019081526020016000206000808201600090556001820160006101000a81549073ffffffffffffffffffffffffffffffffffffffff02191690556002820160009055600382016000905560048201600090556005820160006101000a81549073ffffffffffffffffffffffffffffffffffffffff0219169055600682016000905560078201600090556008820160006101000a81549060ff0219169055505050565b7f000000000000000000000000000000000000000000000000000000000000000073ffffffffffffffffffffffffffffffffffffffff163373ffffffffffffffffffffffffffffffffffffffff1614610e6d576040517f08c379a0000000000000000000000000000000000000000000000000000000008152600401610e6490613fbd565b60405180910390fd5b600960008281526020019081526020016000206000808201600090556001820160006101000a81549073ffffffffffffffffffffffffffffffffffffffff02191690556002820160009055600382016000905560048201600090556005820160006101000a81549073ffffffffffffffffffffffffffffffffffffffff021916905560068201600090556007820160006101000a81549060ff021916905560088201600090556009820160009055505050565b610f2861358a565b60011515600b60003373ffffffffffffffffffffffffffffffffffffffff1673ffffffffffffffffffffffffffffffffffffffff16815260200190815260200160002060009054906101000a900460ff16151514610fbb576040517f08c379a0000000000000000000000000000000000000000000000000000000008152600401610fb29061421f565b60405180910390fd5b60001515600c60003373ffffffffffffffffffffffffffffffffffffffff1673ffffffffffffffffffffffffffffffffffffffff16815260200190815260200160002060009054906101000a900460ff1615151461104e576040517f08c379a000000000000000000000000000000000000000000000000000000000815260040161104590614029565b60405180910390fd5b60008211611091576040517f08c379a00000000000000000000000000000000000000000000000000000000081526004016110889061428b565b60405180910390fd5b600260008154809291906110a4906142da565b91905055508373ffffffffffffffffffffffffffffffffffffffff1663f242432a333086856040518563ffffffff1660e01b81526004016110e89493929190614356565b600060405180830381600087803b15801561110257600080fd5b505af1158015611116573d6000803e3d6000fd5b5050505060006064600154606461112d91906143ae565b8461113891906143e2565b6111429190614453565b905060405180610120016040528060025481526020018673ffffffffffffffffffffffffffffffffffffffff1681526020018581526020018481526020018281526020013373ffffffffffffffffffffffffffffffffffffffff168152602001838152602001838152602001600015158152506008600060025481526020019081526020016000206000820151816000015560208201518160010160006101000a81548173ffffffffffffffffffffffffffffffffffffffff021916908373ffffffffffffffffffffffffffffffffffffffff16021790555060408201518160020155606082015181600301556080820151816004015560a08201518160050160006101000a81548173ffffffffffffffffffffffffffffffffffffffff021916908373ffffffffffffffffffffffffffffffffffffffff16021790555060c0820151816006015560e082015181600701556101008201518160080160006101000a81548160ff0219169083151502179055509050503373ffffffffffffffffffffffffffffffffffffffff168573ffffffffffffffffffffffffffffffffffffffff167fa85b67b57aac0d79fa22a23ea90bb48ae0f4c0b9c3270995811fe3f3b520c73260025487878760405161131d9493929190614484565b60405180910390a35061132e6135d9565b50505050565b60025481565b60015481565b7f000000000000000000000000000000000000000000000000000000000000000081565b61136c61358a565b60011515600b60003373ffffffffffffffffffffffffffffffffffffffff1673ffffffffffffffffffffffffffffffffffffffff16815260200190815260200160002060009054906101000a900460ff161515146113ff576040517f08c379a00000000000000000000000000000000000000000000000000000000081526004016113f69061421f565b60405180910390fd5b60001515600c60003373ffffffffffffffffffffffffffffffffffffffff1673ffffffffffffffffffffffffffffffffffffffff16815260200190815260200160002060009054906101000a900460ff16151514611492576040517f08c379a000000000000000000000000000000000000000000000000000000000815260040161148990614029565b60405180910390fd5b600083116114d5576040517f08c379a00000000000000000000000000000000000000000000000000000000081526004016114cc9061428b565b60405180910390fd5b600360008154809291906114e8906142da565b91905055508473ffffffffffffffffffffffffffffffffffffffff1663f242432a333087866040518563ffffffff1660e01b815260040161152c9493929190614356565b600060405180830381600087803b15801561154657600080fd5b505af115801561155a573d6000803e3d6000fd5b505050506000826064600154606461157291906143ae565b8661157d91906143e2565b6115879190614453565b61159191906143e2565b905060405180610140016040528060035481526020018773ffffffffffffffffffffffffffffffffffffffff1681526020018681526020018581526020018281526020013373ffffffffffffffffffffffffffffffffffffffff168152602001848152602001600015158152602001428152602001834261161291906143ae565b8152506009600060035481526020019081526020016000206000820151816000015560208201518160010160006101000a81548173ffffffffffffffffffffffffffffffffffffffff021916908373ffffffffffffffffffffffffffffffffffffffff16021790555060408201518160020155606082015181600301556080820151816004015560a08201518160050160006101000a81548173ffffffffffffffffffffffffffffffffffffffff021916908373ffffffffffffffffffffffffffffffffffffffff16021790555060c0820151816006015560e08201518160070160006101000a81548160ff0219169083151502179055506101008201518160080155610120820151816009015590505080600a60006003548152602001908152602001600020600001819055508573ffffffffffffffffffffffffffffffffffffffff163373ffffffffffffffffffffffffffffffffffffffff167fecde1ffd2965d959f69fb469e60403b746a142d4ce09ca900a52f143855db7fa6003548888886040516117a59493929190614484565b60405180910390a3506117b66135d9565b5050505050565b6117c561358a565b60001515600c60003373ffffffffffffffffffffffffffffffffffffffff1673ffffffffffffffffffffffffffffffffffffffff16815260200190815260200160002060009054906101000a900460ff16151514611858576040517f08c379a000000000000000000000000000000000000000000000000000000000815260040161184f90614029565b60405180910390fd5b6009600082815260200190815260200160002060050160009054906101000a900473ffffffffffffffffffffffffffffffffffffffff1673ffffffffffffffffffffffffffffffffffffffff163373ffffffffffffffffffffffffffffffffffffffff16036118fc576040517f08c379a00000000000000000000000000000000000000000000000000000000081526004016118f390614515565b60405180910390fd5b600454600a60008381526020019081526020016000206000015461192091906143ae565b341015611962576040517f08c379a000000000000000000000000000000000000000000000000000000000815260040161195990614581565b60405180910390fd5b426009600083815260200190815260200160002060080154106119ba576040517f08c379a00000000000000000000000000000000000000000000000000000000081526004016119b1906145ed565b60405180910390fd5b42600960008381526020019081526020016000206009015411611a12576040517f08c379a0000000000000000000000000000000000000000000000000000000008152600401611a0990614659565b60405180910390fd5b600073ffffffffffffffffffffffffffffffffffffffff16600a600083815260200190815260200160002060010160009054906101000a900473ffffffffffffffffffffffffffffffffffffffff1673ffffffffffffffffffffffffffffffffffffffff1614611be6576000600a600083815260200190815260200160002060010160009054906101000a900473ffffffffffffffffffffffffffffffffffffffff1673ffffffffffffffffffffffffffffffffffffffff16600a600084815260200190815260200160002060000154604051611aee90614152565b60006040518083038185875af1925050503d8060008114611b2b576040519150601f19603f3d011682016040523d82523d6000602084013e611b30565b606091505b5050905080611b74576040517f08c379a0000000000000000000000000000000000000000000000000000000008152600401611b6b906146c5565b60405180910390fd5b33600a600084815260200190815260200160002060010160006101000a81548173ffffffffffffffffffffffffffffffffffffffff021916908373ffffffffffffffffffffffffffffffffffffffff16021790555034600a600084815260200190815260200160002060000181905550505b33600a600083815260200190815260200160002060010160006101000a81548173ffffffffffffffffffffffffffffffffffffffff021916908373ffffffffffffffffffffffffffffffffffffffff16021790555034600a600083815260200190815260200160002060000181905550611c5e6135d9565b50565b60075481565b7f000000000000000000000000000000000000000000000000000000000000000073ffffffffffffffffffffffffffffffffffffffff163373ffffffffffffffffffffffffffffffffffffffff1614611cf5576040517f08c379a0000000000000000000000000000000000000000000000000000000008152600401611cec90613fbd565b60405180910390fd5b8060058190555050565b611d0761358a565b60001515600c60003373ffffffffffffffffffffffffffffffffffffffff1673ffffffffffffffffffffffffffffffffffffffff16815260200190815260200160002060009054906101000a900460ff16151514611d9a576040517f08c379a0000000000000000000000000000000000000000000000000000000008152600401611d9190614029565b60405180910390fd5b600082905060006008600086815260200190815260200160002090506000848260040154611dc891906143e2565b905080341015611e0d576040517f08c379a0000000000000000000000000000000000000000000000000000000008152600401611e0490614757565b60405180910390fd5b600086118015611e1f57506002548611155b611e5e576040517f08c379a0000000000000000000000000000000000000000000000000000000008152600401611e55906147c3565b60405180910390fd5b6000826007015411611ea5576040517f08c379a0000000000000000000000000000000000000000000000000000000008152600401611e9c9061482f565b60405180910390fd5b8482600701541015611eec576040517f08c379a0000000000000000000000000000000000000000000000000000000008152600401611ee39061489b565b60405180910390fd5b3373ffffffffffffffffffffffffffffffffffffffff168260050160009054906101000a900473ffffffffffffffffffffffffffffffffffffffff1673ffffffffffffffffffffffffffffffffffffffff1603611f7e576040517f08c379a0000000000000000000000000000000000000000000000000000000008152600401611f7590614907565b60405180910390fd5b6000611f98868460030154611f9391906143e2565b6135e3565b905060008183611fa89190614927565b905060007f000000000000000000000000000000000000000000000000000000000000000073ffffffffffffffffffffffffffffffffffffffff1683604051611ff090614152565b60006040518083038185875af1925050503d806000811461202d576040519150601f19603f3d011682016040523d82523d6000602084013e612032565b606091505b5050905080612076576040517f08c379a000000000000000000000000000000000000000000000000000000000815260040161206d906149a7565b60405180910390fd5b8673ffffffffffffffffffffffffffffffffffffffff166301ffc9a7632a55205a6040518263ffffffff1660e01b81526004016120b39190614a0f565b602060405180830381865afa1580156120d0573d6000803e3d6000fd5b505050506040513d601f19601f820116820180604052508101906120f49190614a56565b1561274b576000808873ffffffffffffffffffffffffffffffffffffffff16632a55205a8860020154866040518363ffffffff1660e01b815260040161213b929190614a83565b6040805180830381865afa158015612157573d6000803e3d6000fd5b505050506040513d601f19601f8201168201806040525081019061217b9190614ad6565b915091508660050160009054906101000a900473ffffffffffffffffffffffffffffffffffffffff1673ffffffffffffffffffffffffffffffffffffffff168273ffffffffffffffffffffffffffffffffffffffff16146124f05760008273ffffffffffffffffffffffffffffffffffffffff16826040516121fc90614152565b60006040518083038185875af1925050503d8060008114612239576040519150601f19603f3d011682016040523d82523d6000602084013e61223e565b606091505b5050905080612282576040517f08c379a000000000000000000000000000000000000000000000000000000000815260040161227990614b62565b60405180910390fd5b600082866122909190614927565b905060008960050160009054906101000a900473ffffffffffffffffffffffffffffffffffffffff1673ffffffffffffffffffffffffffffffffffffffff16826040516122dc90614152565b60006040518083038185875af1925050503d8060008114612319576040519150601f19603f3d011682016040523d82523d6000602084013e61231e565b606091505b5050905080612362576040517f08c379a000000000000000000000000000000000000000000000000000000000815260040161235990614bf4565b60405180910390fd5b8c8a60070160008282546123769190614927565b925050819055508960010160009054906101000a900473ffffffffffffffffffffffffffffffffffffffff1673ffffffffffffffffffffffffffffffffffffffff1663f242432a30338d600201548f6040518563ffffffff1660e01b81526004016123e49493929190614356565b600060405180830381600087803b1580156123fe57600080fd5b505af1158015612412573d6000803e3d6000fd5b5050505060008a60070154036124e85760018a60080160006101000a81548160ff021916908315150217905550600860008f81526020019081526020016000206000808201600090556001820160006101000a81549073ffffffffffffffffffffffffffffffffffffffff02191690556002820160009055600382016000905560048201600090556005820160006101000a81549073ffffffffffffffffffffffffffffffffffffffff0219169055600682016000905560078201600090556008820160006101000a81549060ff021916905550505b505050612748565b60008760050160009054906101000a900473ffffffffffffffffffffffffffffffffffffffff1673ffffffffffffffffffffffffffffffffffffffff168560405161253a90614152565b60006040518083038185875af1925050503d8060008114612577576040519150601f19603f3d011682016040523d82523d6000602084013e61257c565b606091505b50509050806125c0576040517f08c379a00000000000000000000000000000000000000000000000000000000081526004016125b7906141b3565b60405180910390fd5b8a8860070160008282546125d49190614927565b925050819055508760010160009054906101000a900473ffffffffffffffffffffffffffffffffffffffff1673ffffffffffffffffffffffffffffffffffffffff1663f242432a30338b600201548d6040518563ffffffff1660e01b81526004016126429493929190614356565b600060405180830381600087803b15801561265c57600080fd5b505af1158015612670573d6000803e3d6000fd5b5050505060008860070154036127465760018860080160006101000a81548160ff021916908315150217905550600860008d81526020019081526020016000206000808201600090556001820160006101000a81549073ffffffffffffffffffffffffffffffffffffffff02191690556002820160009055600382016000905560048201600090556005820160006101000a81549073ffffffffffffffffffffffffffffffffffffffff0219169055600682016000905560078201600090556008820160006101000a81549060ff021916905550505b505b50505b3373ffffffffffffffffffffffffffffffffffffffff168560050160009054906101000a900473ffffffffffffffffffffffffffffffffffffffff1673ffffffffffffffffffffffffffffffffffffffff168660010160009054906101000a900473ffffffffffffffffffffffffffffffffffffffff1673ffffffffffffffffffffffffffffffffffffffff167f8b4c9c8a607d67b321582dd8461041b1dc2ceeca70c8b7f37f8e02095cf2e76d8c89600201548a6003015460405161281393929190614c14565b60405180910390a45050505050506128296135d9565b505050565b600063bc197c8160e01b905095945050505050565b61284b61358a565b60001515600c60003373ffffffffffffffffffffffffffffffffffffffff1673ffffffffffffffffffffffffffffffffffffffff16815260200190815260200160002060009054906101000a900460ff161515146128de576040517f08c379a00000000000000000000000000000000000000000000000000000000081526004016128d590614029565b60405180910390fd5b42600960008481526020019081526020016000206009015410612936576040517f08c379a000000000000000000000000000000000000000000000000000000000815260040161292d90614c97565b60405180910390fd5b3373ffffffffffffffffffffffffffffffffffffffff16600a600084815260200190815260200160002060010160009054906101000a900473ffffffffffffffffffffffffffffffffffffffff1673ffffffffffffffffffffffffffffffffffffffff16146129da576040517f08c379a00000000000000000000000000000000000000000000000000000000081526004016129d190614d29565b60405180910390fd5b6000600a60008481526020019081526020016000206000015490506000600154606483612a079190614453565b612a1191906143e2565b905060008183612a219190614927565b905060007f000000000000000000000000000000000000000000000000000000000000000073ffffffffffffffffffffffffffffffffffffffff1683604051612a6990614152565b60006040518083038185875af1925050503d8060008114612aa6576040519150601f19603f3d011682016040523d82523d6000602084013e612aab565b606091505b5050905080612aef576040517f08c379a0000000000000000000000000000000000000000000000000000000008152600401612ae690614dbb565b60405180910390fd5b60006009600088815260200190815260200160002060050160009054906101000a900473ffffffffffffffffffffffffffffffffffffffff1673ffffffffffffffffffffffffffffffffffffffff1683604051612b4b90614152565b60006040518083038185875af1925050503d8060008114612b88576040519150601f19603f3d011682016040523d82523d6000602084013e612b8d565b606091505b5050905080612bd1576040517f08c379a0000000000000000000000000000000000000000000000000000000008152600401612bc890614e27565b60405180910390fd5b8573ffffffffffffffffffffffffffffffffffffffff1663f242432a30600a60008b815260200190815260200160002060010160009054906101000a900473ffffffffffffffffffffffffffffffffffffffff16600960008c815260200190815260200160002060020154600960008d8152602001908152602001600020600601546040518563ffffffff1660e01b8152600401612c729493929190614356565b600060405180830381600087803b158015612c8c57600080fd5b505af1158015612ca0573d6000803e3d6000fd5b5050505060016009600089815260200190815260200160002060070160006101000a81548160ff0219169083151502179055505050505050612ce06135d9565b5050565b60086020528060005260406000206000915090508060000154908060010160009054906101000a900473ffffffffffffffffffffffffffffffffffffffff16908060020154908060030154908060040154908060050160009054906101000a900473ffffffffffffffffffffffffffffffffffffffff16908060060154908060070154908060080160009054906101000a900460ff16905089565b6000612d8961358a565b60001515600c60003373ffffffffffffffffffffffffffffffffffffffff1673ffffffffffffffffffffffffffffffffffffffff16815260200190815260200160002060009054906101000a900460ff16151514612e1c576040517f08c379a0000000000000000000000000000000000000000000000000000000008152600401612e1390614029565b60405180910390fd5b60006008600084815260200190815260200160002060405180610120016040529081600082015481526020016001820160009054906101000a900473ffffffffffffffffffffffffffffffffffffffff1673ffffffffffffffffffffffffffffffffffffffff1673ffffffffffffffffffffffffffffffffffffffff1681526020016002820154815260200160038201548152602001600482015481526020016005820160009054906101000a900473ffffffffffffffffffffffffffffffffffffffff1673ffffffffffffffffffffffffffffffffffffffff1673ffffffffffffffffffffffffffffffffffffffff16815260200160068201548152602001600782015481526020016008820160009054906101000a900460ff161515151581525050905060008160e0015190507f000000000000000000000000000000000000000000000000000000000000000073ffffffffffffffffffffffffffffffffffffffff163373ffffffffffffffffffffffffffffffffffffffff160361316b578160a0015173ffffffffffffffffffffffffffffffffffffffff163373ffffffffffffffffffffffffffffffffffffffff1614613010576040517f08c379a000000000000000000000000000000000000000000000000000000000815260040161300790614eb9565b60405180910390fd5b816020015173ffffffffffffffffffffffffffffffffffffffff1663f242432a30338560400151856040518563ffffffff1660e01b81526004016130579493929190614356565b600060405180830381600087803b15801561307157600080fd5b505af1158015613085573d6000803e3d6000fd5b5050505060016008600086815260200190815260200160002060080160006101000a81548160ff021916908315150217905550600860008581526020019081526020016000206000808201600090556001820160006101000a81549073ffffffffffffffffffffffffffffffffffffffff02191690556002820160009055600382016000905560048201600090556005820160006101000a81549073ffffffffffffffffffffffffffffffffffffffff0219169055600682016000905560078201600090556008820160006101000a81549060ff02191690555050600192505050613446565b6005543410156131b0576040517f08c379a00000000000000000000000000000000000000000000000000000000081526004016131a790614f4b565b60405180910390fd5b8160a0015173ffffffffffffffffffffffffffffffffffffffff163373ffffffffffffffffffffffffffffffffffffffff1614613222576040517f08c379a000000000000000000000000000000000000000000000000000000000815260040161321990614fb7565b60405180910390fd5b60007f000000000000000000000000000000000000000000000000000000000000000073ffffffffffffffffffffffffffffffffffffffff163460405161326890614152565b60006040518083038185875af1925050503d80600081146132a5576040519150601f19603f3d011682016040523d82523d6000602084013e6132aa565b606091505b50509050806132ee576040517f08c379a00000000000000000000000000000000000000000000000000000000081526004016132e590615049565b60405180910390fd5b826020015173ffffffffffffffffffffffffffffffffffffffff1663f242432a30338660400151866040518563ffffffff1660e01b81526004016133359493929190614356565b600060405180830381600087803b15801561334f57600080fd5b505af1158015613363573d6000803e3d6000fd5b5050505060016008600087815260200190815260200160002060080160006101000a81548160ff021916908315150217905550600860008681526020019081526020016000206000808201600090556001820160006101000a81549073ffffffffffffffffffffffffffffffffffffffff02191690556002820160009055600382016000905560048201600090556005820160006101000a81549073ffffffffffffffffffffffffffffffffffffffff0219169055600682016000905560078201600090556008820160006101000a81549060ff02191690555050600193505050505b61344e6135d9565b919050565b600c6020528060005260406000206000915054906101000a900460ff1681565b7f000000000000000000000000000000000000000000000000000000000000000073ffffffffffffffffffffffffffffffffffffffff163373ffffffffffffffffffffffffffffffffffffffff1614613501576040517f08c379a00000000000000000000000000000000000000000000000000000000081526004016134f890613fbd565b60405180910390fd5b8060018190555050565b600063f23a6e6160e01b905095945050505050565b60007f01ffc9a7000000000000000000000000000000000000000000000000000000007bffffffffffffffffffffffffffffffffffffffffffffffffffffffff1916827bffffffffffffffffffffffffffffffffffffffffffffffffffffffff1916149050919050565b6002600054036135cf576040517f08c379a00000000000000000000000000000000000000000000000000000000081526004016135c6906150b5565b60405180910390fd5b6002600081905550565b6001600081905550565b60006064600154836135f591906143e2565b6135ff9190614453565b9050919050565b6000604051905090565b600080fd5b600080fd5b60007fffffffff0000000000000000000000000000000000000000000000000000000082169050919050565b61364f8161361a565b811461365a57600080fd5b50565b60008135905061366c81613646565b92915050565b60006020828403121561368857613687613610565b5b60006136968482850161365d565b91505092915050565b60008115159050919050565b6136b48161369f565b82525050565b60006020820190506136cf60008301846136ab565b92915050565b6000819050919050565b6136e8816136d5565b82525050565b600060208201905061370360008301846136df565b92915050565b613712816136d5565b811461371d57600080fd5b50565b60008135905061372f81613709565b92915050565b60006020828403121561374b5761374a613610565b5b600061375984828501613720565b91505092915050565b600073ffffffffffffffffffffffffffffffffffffffff82169050919050565b600061378d82613762565b9050919050565b61379d81613782565b81146137a857600080fd5b50565b6000813590506137ba81613794565b92915050565b6000602082840312156137d6576137d5613610565b5b60006137e4848285016137ab565b91505092915050565b6137f681613782565b82525050565b600060408201905061381160008301856136df565b61381e60208301846137ed565b9392505050565b6000819050919050565b600061384a61384561384084613762565b613825565b613762565b9050919050565b600061385c8261382f565b9050919050565b600061386e82613851565b9050919050565b61387e81613863565b82525050565b600061388f82613762565b9050919050565b61389f81613884565b82525050565b6000610140820190506138bb600083018d6136df565b6138c8602083018c613875565b6138d5604083018b6136df565b6138e2606083018a6136df565b6138ef60808301896136df565b6138fc60a0830188613896565b61390960c08301876136df565b61391660e08301866136ab565b6139246101008301856136df565b6139326101208301846136df565b9b9a5050505050505050505050565b600061394c82613782565b9050919050565b61395c81613941565b811461396757600080fd5b50565b60008135905061397981613953565b92915050565b6000806000806080858703121561399957613998613610565b5b60006139a78782880161396a565b94505060206139b887828801613720565b93505060406139c987828801613720565b92505060606139da87828801613720565b91505092959194509250565b60006020820190506139fb6000830184613896565b92915050565b600080600080600060a08688031215613a1d57613a1c613610565b5b6000613a2b8882890161396a565b9550506020613a3c88828901613720565b9450506040613a4d88828901613720565b9350506060613a5e88828901613720565b9250506080613a6f88828901613720565b9150509295509295909350565b600080600060608486031215613a9557613a94613610565b5b6000613aa386828701613720565b9350506020613ab486828701613720565b9250506040613ac5868287016137ab565b9150509250925092565b600080fd5b6000601f19601f8301169050919050565b7f4e487b7100000000000000000000000000000000000000000000000000000000600052604160045260246000fd5b613b1d82613ad4565b810181811067ffffffffffffffff82111715613b3c57613b3b613ae5565b5b80604052505050565b6000613b4f613606565b9050613b5b8282613b14565b919050565b600067ffffffffffffffff821115613b7b57613b7a613ae5565b5b602082029050602081019050919050565b600080fd5b6000613ba4613b9f84613b60565b613b45565b90508083825260208201905060208402830185811115613bc757613bc6613b8c565b5b835b81811015613bf05780613bdc8882613720565b845260208401935050602081019050613bc9565b5050509392505050565b600082601f830112613c0f57613c0e613acf565b5b8135613c1f848260208601613b91565b91505092915050565b600080fd5b600067ffffffffffffffff821115613c4857613c47613ae5565b5b613c5182613ad4565b9050602081019050919050565b82818337600083830152505050565b6000613c80613c7b84613c2d565b613b45565b905082815260208101848484011115613c9c57613c9b613c28565b5b613ca7848285613c5e565b509392505050565b600082601f830112613cc457613cc3613acf565b5b8135613cd4848260208601613c6d565b91505092915050565b600080600080600060a08688031215613cf957613cf8613610565b5b6000613d07888289016137ab565b9550506020613d18888289016137ab565b945050604086013567ffffffffffffffff811115613d3957613d38613615565b5b613d4588828901613bfa565b935050606086013567ffffffffffffffff811115613d6657613d65613615565b5b613d7288828901613bfa565b925050608086013567ffffffffffffffff811115613d9357613d92613615565b5b613d9f88828901613caf565b9150509295509295909350565b613db58161361a565b82525050565b6000602082019050613dd06000830184613dac565b92915050565b60008060408385031215613ded57613dec613610565b5b6000613dfb85828601613720565b9250506020613e0c8582860161396a565b9150509250929050565b600061012082019050613e2c600083018c6136df565b613e39602083018b613875565b613e46604083018a6136df565b613e5360608301896136df565b613e6060808301886136df565b613e6d60a0830187613896565b613e7a60c08301866136df565b613e8760e08301856136df565b613e956101008301846136ab565b9a9950505050505050505050565b600080600080600060a08688031215613ebf57613ebe613610565b5b6000613ecd888289016137ab565b9550506020613ede888289016137ab565b9450506040613eef88828901613720565b9350506060613f0088828901613720565b925050608086013567ffffffffffffffff811115613f2157613f20613615565b5b613f2d88828901613caf565b9150509295509295909350565b600082825260208201905092915050565b7f4f6e6c79204f776e65722043616e20557365205468697320417574686f72697460008201527f7900000000000000000000000000000000000000000000000000000000000000602082015250565b6000613fa7602183613f3a565b9150613fb282613f4b565b604082019050919050565b60006020820190508181036000830152613fd681613f9a565b9050919050565b7f596f752061726520626c6f636b65640000000000000000000000000000000000600082015250565b6000614013600f83613f3a565b915061401e82613fdd565b602082019050919050565b6000602082019050818103600083015261404281614006565b9050919050565b7f547279696e6720746f2073656e64206c65737320666565000000000000000000600082015250565b600061407f601783613f3a565b915061408a82614049565b602082019050919050565b600060208201905081810360008301526140ae81614072565b9050919050565b7f796f752061726520616c72656164792072656769737465726564000000000000600082015250565b60006140eb601a83613f3a565b91506140f6826140b5565b602082019050919050565b6000602082019050818103600083015261411a816140de565b9050919050565b600081905092915050565b50565b600061413c600083614121565b91506141478261412c565b600082019050919050565b600061415d8261412f565b9150819050919050565b7f4572726f7220496e2053656e64696e6720746f2053656c6c6572000000000000600082015250565b600061419d601a83613f3a565b91506141a882614167565b602082019050919050565b600060208201905081810360008301526141cc81614190565b9050919050565b7f596f7520417265204e6f74205265676973746572656400000000000000000000600082015250565b6000614209601683613f3a565b9150614214826141d3565b602082019050919050565b60006020820190508181036000830152614238816141fc565b9050919050565b7f5072696365206d7573742062652067726561746572207468616e207a65726f00600082015250565b6000614275601f83613f3a565b91506142808261423f565b602082019050919050565b600060208201905081810360008301526142a481614268565b9050919050565b7f4e487b7100000000000000000000000000000000000000000000000000000000600052601160045260246000fd5b60006142e5826136d5565b91507fffffffffffffffffffffffffffffffffffffffffffffffffffffffffffffffff8203614317576143166142ab565b5b600182019050919050565b600082825260208201905092915050565b6000614340600083614322565b915061434b8261412c565b600082019050919050565b600060a08201905061436b60008301876137ed565b61437860208301866137ed565b61438560408301856136df565b61439260608301846136df565b81810360808301526143a381614333565b905095945050505050565b60006143b9826136d5565b91506143c4836136d5565b92508282019050808211156143dc576143db6142ab565b5b92915050565b60006143ed826136d5565b91506143f8836136d5565b9250828202614406816136d5565b9150828204841483151761441d5761441c6142ab565b5b5092915050565b7f4e487b7100000000000000000000000000000000000000000000000000000000600052601260045260246000fd5b600061445e826136d5565b9150614469836136d5565b92508261447957614478614424565b5b828204905092915050565b600060808201905061449960008301876136df565b6144a660208301866136df565b6144b360408301856136df565b6144c060608301846136df565b95945050505050565b7f437265617465722063616e277420706c61636520206269642000000000000000600082015250565b60006144ff601983613f3a565b915061450a826144c9565b602082019050919050565b6000602082019050818103600083015261452e816144f2565b9050919050565b7f2053656e646967204c6573732045746820666f72204269642000000000000000600082015250565b600061456b601983613f3a565b915061457682614535565b602082019050919050565b6000602082019050818103600083015261459a8161455e565b9050919050565b7f4469646e27742073746172746564207965740000000000000000000000000000600082015250565b60006145d7601283613f3a565b91506145e2826145a1565b602082019050919050565b60006020820190508181036000830152614606816145ca565b9050919050565b7f41756374696f6e656420456e6465640000000000000000000000000000000000600082015250565b6000614643600f83613f3a565b915061464e8261460d565b602082019050919050565b6000602082019050818103600083015261467281614636565b9050919050565b7f4661696c656420746f2073656e64206f6c642062696464657200000000000000600082015250565b60006146af601983613f3a565b91506146ba82614679565b602082019050919050565b600060208201905081810360008301526146de816146a2565b9050919050565b7f796f7520646964206e6f742073656e6420656e6f75676820657468657220746f60008201527f20636f766572206974656d20707269636520616e64206d61726b657420666565602082015250565b6000614741604083613f3a565b915061474c826146e5565b604082019050919050565b6000602082019050818103600083015261477081614734565b9050919050565b7f6974656d20646f65736e27742065786973740000000000000000000000000000600082015250565b60006147ad601283613f3a565b91506147b882614777565b602082019050919050565b600060208201905081810360008301526147dc816147a0565b9050919050565b7f416c6c2048617665204265656e20536f6c640000000000000000000000000000600082015250565b6000614819601283613f3a565b9150614824826147e3565b602082019050919050565b600060208201905081810360008301526148488161480c565b9050919050565b7f4e6f74204176616961626c6520456e6f75676820546f6b656e73000000000000600082015250565b6000614885601a83613f3a565b91506148908261484f565b602082019050919050565b600060208201905081810360008301526148b481614878565b9050919050565b7f53656c6c65722043616e27742042757920486973204f776e20546f6b656e0000600082015250565b60006148f1601e83613f3a565b91506148fc826148bb565b602082019050919050565b60006020820190508181036000830152614920816148e4565b9050919050565b6000614932826136d5565b915061493d836136d5565b9250828203905081811115614955576149546142ab565b5b92915050565b7f4572726f7220496e2053656e64696e6720746f204d61726b6574506c61636500600082015250565b6000614991601f83613f3a565b915061499c8261495b565b602082019050919050565b600060208201905081810360008301526149c081614984565b9050919050565b6000819050919050565b60008160e01b9050919050565b60006149f96149f46149ef846149c7565b6149d1565b61361a565b9050919050565b614a09816149de565b82525050565b6000602082019050614a246000830184614a00565b92915050565b614a338161369f565b8114614a3e57600080fd5b50565b600081519050614a5081614a2a565b92915050565b600060208284031215614a6c57614a6b613610565b5b6000614a7a84828501614a41565b91505092915050565b6000604082019050614a9860008301856136df565b614aa560208301846136df565b9392505050565b600081519050614abb81613794565b92915050565b600081519050614ad081613709565b92915050565b60008060408385031215614aed57614aec613610565b5b6000614afb85828601614aac565b9250506020614b0c85828601614ac1565b9150509250929050565b7f4572726f7220496e2053656e64696e6720746f20437265617465720000000000600082015250565b6000614b4c601b83613f3a565b9150614b5782614b16565b602082019050919050565b60006020820190508181036000830152614b7b81614b3f565b9050919050565b7f4572726f7220496e2053656e64696e6720746f2053656c6c6572204578636c7560008201527f64696e6720526f79616c74696573200000000000000000000000000000000000602082015250565b6000614bde602f83613f3a565b9150614be982614b82565b604082019050919050565b60006020820190508181036000830152614c0d81614bd1565b9050919050565b6000606082019050614c2960008301866136df565b614c3660208301856136df565b614c4360408301846136df565b949350505050565b7f43616e27742063616c6c206265666f726520656e642074696d65000000000000600082015250565b6000614c81601a83613f3a565b9150614c8c82614c4b565b602082019050919050565b60006020820190508181036000830152614cb081614c74565b9050919050565b7f4f6e6c792068696768657374206269646465722063616e20636c61696d20686960008201527f732061756374696f6e0000000000000000000000000000000000000000000000602082015250565b6000614d13602983613f3a565b9150614d1e82614cb7565b604082019050919050565b60006020820190508181036000830152614d4281614d06565b9050919050565b7f626964416d6f756e742073656e64696e67206661696c656420746f204d61726b60008201527f6574506c61636500000000000000000000000000000000000000000000000000602082015250565b6000614da5602783613f3a565b9150614db082614d49565b604082019050919050565b60006020820190508181036000830152614dd481614d98565b9050919050565b7f73656e64696e67206661696c656420746f2061756374696f6e43726561746572600082015250565b6000614e11602083613f3a565b9150614e1c82614ddb565b602082019050919050565b60006020820190508181036000830152614e4081614e04565b9050919050565b7f4f6e6c79204974656d204f776e65722043616e2043616e63656c20546865204c60008201527f6973740000000000000000000000000000000000000000000000000000000000602082015250565b6000614ea3602383613f3a565b9150614eae82614e47565b604082019050919050565b60006020820190508181036000830152614ed281614e96565b9050919050565b7f446964204e6f742053656e6420456e6f7567682043616e63656c696e6720204660008201527f6565000000000000000000000000000000000000000000000000000000000000602082015250565b6000614f35602283613f3a565b9150614f4082614ed9565b604082019050919050565b60006020820190508181036000830152614f6481614f28565b9050919050565b7f4f6e6c79204f776e65722043616e20556e7374616b6520546865204974656d00600082015250565b6000614fa1601f83613f3a565b9150614fac82614f6b565b602082019050919050565b60006020820190508181036000830152614fd081614f94565b9050919050565b7f2043616e63656c696e675f416d6f756e742073656e64696e67206661696c656460008201527f20746f204d61726b6574506c6163650000000000000000000000000000000000602082015250565b6000615033602f83613f3a565b915061503e82614fd7565b604082019050919050565b6000602082019050818103600083015261506281615026565b9050919050565b7f5265656e7472616e637947756172643a207265656e7472616e742063616c6c00600082015250565b600061509f601f83613f3a565b91506150aa82615069565b602082019050919050565b600060208201905081810360008301526150ce81615092565b905091905056fea264697066735822122045dc69104823bfba0604ad566706bd1a8115c4e8518a3a373a3ee89da7b257e764736f6c63430008110033",
  "linkReferences": {},
  "deployedLinkReferences": {}
}